{
  "contractName": "TicketSale",
  "abi": [
    {
      "anonymous": false,
      "inputs": [
        {
          "indexed": false,
          "internalType": "uint256",
          "name": "ticketId",
          "type": "uint256"
        },
        {
          "indexed": false,
          "internalType": "address",
          "name": "buyer",
          "type": "address"
        },
        {
          "indexed": false,
          "internalType": "uint256",
          "name": "quantity",
          "type": "uint256"
        }
      ],
      "name": "TicketPurchased",
      "type": "event"
    },
    {
      "inputs": [
        {
          "internalType": "uint256",
          "name": "",
          "type": "uint256"
        }
      ],
      "name": "tickets",
      "outputs": [
        {
          "internalType": "string",
          "name": "eventName",
          "type": "string"
        },
        {
          "internalType": "uint256",
          "name": "price",
          "type": "uint256"
        },
        {
          "internalType": "uint256",
          "name": "quantityAvailable",
          "type": "uint256"
        }
      ],
      "stateMutability": "view",
      "type": "function",
      "constant": true
    },
    {
      "inputs": [
        {
          "internalType": "string",
          "name": "_eventName",
          "type": "string"
        },
        {
          "internalType": "uint256",
          "name": "_price",
          "type": "uint256"
        }
      ],
      "name": "addTicket",
      "outputs": [],
      "stateMutability": "nonpayable",
      "type": "function"
    },
    {
      "inputs": [],
      "name": "getAllTickets",
      "outputs": [
        {
          "components": [
            {
              "internalType": "string",
              "name": "eventName",
              "type": "string"
            },
            {
              "internalType": "uint256",
              "name": "price",
              "type": "uint256"
            },
            {
              "internalType": "uint256",
              "name": "quantityAvailable",
              "type": "uint256"
            }
          ],
          "internalType": "struct TicketSale.Ticket[]",
          "name": "",
          "type": "tuple[]"
        }
      ],
      "stateMutability": "view",
      "type": "function",
      "constant": true
    },
    {
      "inputs": [
        {
          "internalType": "uint256",
          "name": "_ticketId",
          "type": "uint256"
        },
        {
          "internalType": "uint256",
          "name": "_quantity",
          "type": "uint256"
        }
      ],
      "name": "purchaseTicket",
      "outputs": [],
      "stateMutability": "payable",
      "type": "function",
      "payable": true
    }
  ],
  "bytecode": "0x608060405234801561001057600080fd5b50610d85806100206000396000f3fe60806040526004361061003f5760003560e01c806303e96fe3146100445780634b6ad80a1461006f57806350b4471214610098578063bdbbb0cb146100d7575b600080fd5b34801561005057600080fd5b506100596100f3565b604051610066919061097e565b60405180910390f35b34801561007b57600080fd5b5061009660048036038101906100919190610627565b6101f8565b005b3480156100a457600080fd5b506100bf60048036038101906100ba919061067b565b6102bf565b6040516100ce939291906109a0565b60405180910390f35b6100f160048036038101906100ec91906106a4565b610381565b005b60606000805480602002602001604051908101604052809291908181526020016000905b828210156101ef578382906000526020600020906003020160405180606001604052908160008201805461014a90610c68565b80601f016020809104026020016040519081016040528092919081815260200182805461017690610c68565b80156101c35780601f10610198576101008083540402835291602001916101c3565b820191906000526020600020905b8154815290600101906020018083116101a657829003601f168201915b505050505081526020016001820154815260200160028201548152505081526020019060010190610117565b50505050905090565b600060c8905060008211610241576040517f08c379a0000000000000000000000000000000000000000000000000000000008152600401610238906109de565b60405180910390fd5b6000604051806060016040528085815260200184815260200183815250908060018154018082558091505060019003906000526020600020906003020160009091909190915060008201518160000190805190602001906102a3929190610507565b5060208201518160010155604082015181600201555050505050565b600081815481106102cf57600080fd5b90600052602060002090600302016000915090508060000180546102f290610c68565b80601f016020809104026020016040519081016040528092919081815260200182805461031e90610c68565b801561036b5780601f106103405761010080835404028352916020019161036b565b820191906000526020600020905b81548152906001019060200180831161034e57829003601f168201915b5050505050908060010154908060020154905083565b60008054905082106103c8576040517f08c379a00000000000000000000000000000000000000000000000000000000081526004016103bf90610a1e565b60405180910390fd5b6000808381548110610403577f4e487b7100000000000000000000000000000000000000000000000000000000600052603260045260246000fd5b90600052602060002090600302019050818160020154101561045a576040517f08c379a0000000000000000000000000000000000000000000000000000000008152600401610451906109fe565b60405180910390fd5b81816001015461046a9190610b5c565b3410156104ac576040517f08c379a00000000000000000000000000000000000000000000000000000000081526004016104a390610a3e565b60405180910390fd5b818160020160008282546104c09190610bb6565b925050819055507fdbaaf4c87ce30816c961a81d110622a3227ede77953d4383d514ff88ab2e0fd38333846040516104fa93929190610a5e565b60405180910390a1505050565b82805461051390610c68565b90600052602060002090601f016020900481019282610535576000855561057c565b82601f1061054e57805160ff191683800117855561057c565b8280016001018555821561057c579182015b8281111561057b578251825591602001919060010190610560565b5b509050610589919061058d565b5090565b5b808211156105a657600081600090555060010161058e565b5090565b60006105bd6105b884610ac6565b610a95565b9050828152602081018484840111156105d557600080fd5b6105e0848285610c26565b509392505050565b600082601f8301126105f957600080fd5b81356106098482602086016105aa565b91505092915050565b60008135905061062181610d38565b92915050565b6000806040838503121561063a57600080fd5b600083013567ffffffffffffffff81111561065457600080fd5b610660858286016105e8565b925050602061067185828601610612565b9150509250929050565b60006020828403121561068d57600080fd5b600061069b84828501610612565b91505092915050565b600080604083850312156106b757600080fd5b60006106c585828601610612565b92505060206106d685828601610612565b9150509250929050565b60006106ec8383610910565b905092915050565b6106fd81610bea565b82525050565b600061070e82610b06565b6107188185610b29565b93508360208202850161072a85610af6565b8060005b85811015610766578484038952815161074785826106e0565b945061075283610b1c565b925060208a0199505060018101905061072e565b50829750879550505050505092915050565b600061078382610b11565b61078d8185610b3a565b935061079d818560208601610c35565b6107a681610d27565b840191505092915050565b60006107bc82610b11565b6107c68185610b4b565b93506107d6818560208601610c35565b6107df81610d27565b840191505092915050565b60006107f7602183610b4b565b91507f50726963652073686f756c642062652067726561746572207468616e207a657260008301527f6f000000000000000000000000000000000000000000000000000000000000006020830152604082019050919050565b600061085d601c83610b4b565b91507f4e6f7420656e6f756768207469636b65747320617661696c61626c65000000006000830152602082019050919050565b600061089d600e83610b4b565b91507f496e76616c6964207469636b65740000000000000000000000000000000000006000830152602082019050919050565b60006108dd601483610b4b565b91507f496e73756666696369656e74207061796d656e740000000000000000000000006000830152602082019050919050565b6000606083016000830151848203600086015261092d8282610778565b91505060208301516109426020860182610960565b5060408301516109556040860182610960565b508091505092915050565b61096981610c1c565b82525050565b61097881610c1c565b82525050565b600060208201905081810360008301526109988184610703565b905092915050565b600060608201905081810360008301526109ba81866107b1565b90506109c9602083018561096f565b6109d6604083018461096f565b949350505050565b600060208201905081810360008301526109f7816107ea565b9050919050565b60006020820190508181036000830152610a1781610850565b9050919050565b60006020820190508181036000830152610a3781610890565b9050919050565b60006020820190508181036000830152610a57816108d0565b9050919050565b6000606082019050610a73600083018661096f565b610a8060208301856106f4565b610a8d604083018461096f565b949350505050565b6000604051905081810181811067ffffffffffffffff82111715610abc57610abb610cf8565b5b8060405250919050565b600067ffffffffffffffff821115610ae157610ae0610cf8565b5b601f19601f8301169050602081019050919050565b6000819050602082019050919050565b600081519050919050565b600081519050919050565b6000602082019050919050565b600082825260208201905092915050565b600082825260208201905092915050565b600082825260208201905092915050565b6000610b6782610c1c565b9150610b7283610c1c565b9250817fffffffffffffffffffffffffffffffffffffffffffffffffffffffffffffffff0483118215151615610bab57610baa610c9a565b5b828202905092915050565b6000610bc182610c1c565b9150610bcc83610c1c565b925082821015610bdf57610bde610c9a565b5b828203905092915050565b6000610bf582610bfc565b9050919050565b600073ffffffffffffffffffffffffffffffffffffffff82169050919050565b6000819050919050565b82818337600083830152505050565b60005b83811015610c53578082015181840152602081019050610c38565b83811115610c62576000848401525b50505050565b60006002820490506001821680610c8057607f821691505b60208210811415610c9457610c93610cc9565b5b50919050565b7f4e487b7100000000000000000000000000000000000000000000000000000000600052601160045260246000fd5b7f4e487b7100000000000000000000000000000000000000000000000000000000600052602260045260246000fd5b7f4e487b7100000000000000000000000000000000000000000000000000000000600052604160045260246000fd5b6000601f19601f8301169050919050565b610d4181610c1c565b8114610d4c57600080fd5b5056fea2646970667358221220bda8f24915ca65d1fb686bca6f8abdf68506e58a666d5e8931225a26a9129e1864736f6c63430008000033",
  "immutableReferences": {},
  "source": "// SPDX-License-Identifier: MIT\r\npragma solidity ^0.8.0;\r\n\r\ncontract TicketSale {\r\n    struct Ticket {\r\n        string eventName;\r\n        uint256 price; // preo em Wei\r\n        uint256 quantityAvailable;\r\n    }\r\n\r\n    Ticket[] public tickets;\r\n\r\n    event TicketPurchased(uint256 ticketId, address buyer, uint256 quantity);\r\n\r\n    // Adiciona ingressos ao contrato\r\n    function addTicket(string memory _eventName, uint256 _price) public {\r\n        uint256 initialQuantity = 200;  // Inicializa com 200 ingressos\r\n\r\n        // Verifica se o preo  maior que zero\r\n        require(_price > 0, \"Price should be greater than zero\");\r\n\r\n        // Adiciona um ingresso com quantidade inicial de 200\r\n        tickets.push(Ticket(_eventName, _price, initialQuantity));\r\n    }\r\n\r\n    // Retorna todos os ingressos\r\n    function getAllTickets() public view returns (Ticket[] memory) {\r\n        return tickets;\r\n    }\r\n\r\n    // Funo para comprar ingressos\r\n    function purchaseTicket(uint256 _ticketId, uint256 _quantity) public payable {\r\n        require(_ticketId < tickets.length, \"Invalid ticket\");\r\n        Ticket storage ticket = tickets[_ticketId];\r\n        require(ticket.quantityAvailable >= _quantity, \"Not enough tickets available\");\r\n        require(msg.value >= ticket.price * _quantity, \"Insufficient payment\");\r\n\r\n        // Subtrai a quantidade de ingressos comprados\r\n        ticket.quantityAvailable -= _quantity;\r\n\r\n        emit TicketPurchased(_ticketId, msg.sender, _quantity);\r\n    }\r\n}\r\n",
  "sourcePath": "C:\\Users\\Breno Piropo\\meuProjetoTicketSale\\contracts\\TicketSale.sol",
  "compiler": {
    "name": "solc",
    "version": "0.8.0+commit.c7dfd78e.Emscripten.clang"
  },
  "schemaVersion": "3.4.16",
  "updatedAt": "2024-12-06T04:09:45.524Z",
  "networkType": "ethereum",
  "devdoc": {
    "kind": "dev",
    "methods": {},
    "version": 1
  },
  "userdoc": {
    "kind": "user",
    "methods": {},
    "version": 1
  }
}